:020000040800F2
:10000000580400204914000825140008271400088B
:10001000291400082B1400082D140008000000000B
:100020000000000000000000000000002F14000885
:1000300031140008000000003314000835140008D3
:100040006114000865140008691400086D140008A4
:100050007114000875140008791400087D14000854
:100060008114000885140008891400088D14000804
:100070009114000895140008991400089D140008B4
:10008000A1140008A5140008A9140008000000002D
:10009000000000000000000000000000AD14000897
:1000A000B1140008B5140008B9140008BD14000804
:1000B000C1140008C5140008C9140008CD140008B4
:1000C000D1140008D5140008D9140008DD14000864
:1000D000E1140008E5140008E9140008000000001D
:1000E000ED140008F1140008F514000800000000E9
:1000F000000000000000000000000000F9140008EB
:1001000000000000FD140008011500080515000896
:1001100000000000000000000000000000000000DF
:10012000091500080D15000811150008151500081F
:100130001915000800000000000000000000000089
:100140000000000000000000000000001D15000875
:100150002115000825150008291500082D1500088F
:1001600031150008351500080000000000000000EF
:10017000000000000000000000000000000000007F
:100180000000000039150008000000000000000019
:100190003D150008411500082DE9F84187B000F031
:1001A000B1F900F04AF9142101A800F0C5F90020C6
:1001B00006904FF21005C848DFF820830168C84C4C
:1001C000C84E41F0100101604FF49017026802F030
:1001D00010020692002206990692036843F0040377
:1001E0000360016801F0040100F015F943F0800399
:1001F0000360016801F0800100F00DF943F0010394
:100200000360016801F0010100F005F943F0020309
:100210000360016801F00201069106990692082127
:10022000036843F008030360006800F008000690CC
:100230000698404600F07CFA01220121204600F099
:1002400077FA00222946304600F072FA0420002195
:100250000190029100F0D3F80821019101220021C0
:1002600003910491029200F0E4F832200190029789
:10027000002100F0C4F84FF6C17000F0D5F842F646
:10028000763000F0C1F8204600F076F901210191A6
:100290000291204600210391049101A900F06CF91C
:1002A000082000F0BDF800F0A3F8204600F064F943
:1002B0000121019102970021039101A9DFF8288211
:1002C0008A4F00F0B7F84FF4817000F0ADF800F0FD
:1002D000A7F8102000F086F800F0ABF80221029198
:1002E00000220392E020032101900491052205924F
:1002F00000F09FF84EF2771000F086F8384600F0D4
:100300003BF900F08DF84FF4A05000F071F838463A
:1003100000F032F940F6CF7000F076F8304600F089
:100320002BF90120029000F07BF8019501A93046DD
:1003300000F022F900F074F84FF4A45000F052F8E5
:1003400001A9204600F018F90021029103914FF411
:100350000074019400F06DF80221029100220392D2
:100360004FF4E0500321019004910A22059200F01D
:1003700060F820200021019002910391304601A9EC
:1003800000F0FAF800F04CF81221029104220592D4
:10039000019401A9384600F0EFF8554C554820600B
:1003A0004FF4E1310C20002260616160A260E260E4
:1003B0002261A261E261204600F0CEF908B100F0AE
:1003C0009FF800F009F800F05CFA0028F9D100F07D
:1003D00003F800F0FEF9F4E74FF4FA7301226946DE
:1003E0002046704702210190029106220592704733
:1003F0000221019002910522059201A97047039103
:10040000404601A900F0B8B80321019002910022F2
:10041000039201A9704706910699069203687047F6
:10042000002203920492704703210190029100225E
:10043000039201A9404600F09FB880B592B03021E8
:1004400006A800F079F8142101A800F075F8002042
:1004500000902948016841F0805101600021006846
:1004600000F080500090009824480091022102681A
:1004700042F4404202600122006800F440400090D3
:1004800000980691099210210A91022200210C92F3
:100490000D9110224FF4A8710E920F9104220821A1
:1004A0001092119106A800F0FBFA08B100F028F8AC
:1004B000022102910F204FF48051019000220491FB
:1004C00003920592022101A800F07AFC08B100F025
:1004D00017F813B000BD0000303802400010024091
:1004E00000080240000C02400000024000040240EC
:1004F0001000002000100140403802400070004011
:1005000072B6FEE780B50B48016841F400710160E6
:10051000026842F480620260016841F48071016007
:10052000032000F000FD002000F044FD00F062FD1B
:10053000002002BD003C0240002200F0EFBD30B5BB
:10054000016884684218416802EB5103C90703D56A
:100550004C4401E0491C08D19A4218BF12F9011B12
:1005600001D10C3030BD12F8015B002904F8015BA9
:10057000F0D4491EF7D5EFE72DE9F84F0D460026D8
:100580006D496E4A0F23044601202F68B04000EAEF
:100590000708804540F0C6804FEA460C032707FA5B
:1005A0000CF76FEA070E6F6807F00309B9F1010F46
:1005B0001CBF07F00307022F12D1A768D5F80C90D3
:1005C0000EEA070709FA0CF949EA0707A760676806
:1005D00027EA00006F68C7F30017B7403843606030
:1005E000B0002F7907F00307032F21D0E768D5F873
:1005F00008900EEA070709FA0CF949EA0707E760CD
:100600002F7907F00307022F12D1F70804EB8707B1
:1006100000F01C09D7F820A003FA09FB2AEA0B0A0C
:10062000D5F810B00BFA09F949EA0A09C7F8209081
:1006300027680EEA070E2F7907F0030707FA0CF771
:1006400047EA0E0CC4F800C06F6817F4403F69D049
:100650004FF0000ECDF800E04FEA960C176847F413
:100660008047176000F00C00D2F800E0344F0EF421
:10067000804ECDF800E0DDF800E057F82C7003FA6A
:1006800000FE27EA0E0E2F4FBC4208BF002713D0F2
:100690002D4FBC4208BF01270ED02C4FBC4208BFD3
:1006A000022709D02A4FBC4208BF032704D0294F94
:1006B000BC420CBF0427072707FA00F040EA0E00EF
:1006C000DFF87CE04EF82C006FEA0800D1F808C093
:1006D0006F6800EA0C0CFF0248BF48EA0C0CC1F836
:1006E00008C0D1F80CC06F6800EA0C0CBF0248BF0C
:1006F00048EA0C0CC1F80CC0D1F804C06F6800EADD
:100700000C0CBF0348BF48EA0C0CC1F804C0D1F878
:1007100000C000EA0C0C6868C00348BF48EA0C0C33
:10072000C1F800C0761C0F2E7FF62EAFBDE8F18F0A
:1007300002B9090481617047003C0140443802401D
:100740000838014000000240000402400008024056
:10075000000C02400010024038B5040001D1012015
:1007600032BD00F019F808B900F01AF800F01DF8D1
:1007700000F025F8FFE7416100F001F832BD206884
:10078000C16841F40051C160002068602021697097
:100790002020A8700020704704F13C05687870475D
:1007A00000212970204600F041BC24206870206898
:1007B000C16821F40051C160204600F00CB92068E6
:1007C000016921F4904101612068416921F02A0109
:1007D00070472DE9F843054605F13C060C46707854
:1007E00020281746994649D10CB1380001D1012083
:1007F00045E03078012841D001213170002070603F
:100800002122727000F0A4FCAF848046EF84A868B7
:10081000B0F5805F04BF286900280EBF2746204638
:1008200000270021317004460EE014F8012B4260CD
:1008300007E02868002CF8D137F8021BC1F3080143
:100840004160E88C411EE9844346E88CCDF8009075
:10085000002807D000228021284600F071F80028E7
:10086000E7D005E000224021284600F069F808B1F1
:10087000032004E020207070002000E00220BDE88A
:10088000F2832DE9F843054605F13C070C46B8789C
:1008900020281646994650D1002C14BF002E012066
:1008A0004CD03878012848D0012139700020786078
:1008B0002222BA70286300F04BFCAE858046EE859C
:1008C000A868B0F5805F04BF286900280EBF2646DF
:1008D000204600260021397004460EE02868406852
:1008E00000F07F0022E0B4B928684168C1F3080134
:1008F00026F8021BE88D411EE985E88DC8B1CDF8C8
:100900000090434600222021284600F019F80028D4
:10091000E9D0032012E0A868B0F5805F04D0002879
:1009200004BF28690028D9D12968486804F8010B58
:10093000E0E72020B870002000E00220BDE8F2834C
:100940002DE9F041069C05460E4690461F46286854
:1009500001683140B1420CBF0120002040451CD14C
:1009600014F1010FF3D024B100F0F2FBC01B84425C
:10097000EDD200F01BF821F4D07100F013F8F8D19B
:1009800000F01CF8FCD105F13C0020214170202230
:10099000827000210170032000E00020BDE8F0819A
:1009A00021F0100143E8001000287047286800F18A
:1009B0000C0151E8001F00F10C037047286800F19A
:1009C000140151E8001F490800F11403490043E8ED
:1009D00000100028704770B5044622681169E0686D
:1009E00021F4405101431161D3682748A1680340B5
:1009F00020690B4361690343E0690B430343D36000
:100A00005169A06921F44071014351611F498A4233
:100A10001CBF1F48824202D100F060FA01E000F0E2
:100A200055FA62682568E4691921B4F5004FA1FB05
:100A300000016FF0630612D1D30F520000F08EFB5D
:100A400000F028F8F60032366420B6FBF0F04200E1
:100A500002F4F87202EB011200F0070010E0930FAD
:100A6000920000F07BFB00F015F83601323664206E
:100A7000B6FBF0F000F0F00202EB011200F00F0004
:100A80008018A86070BD0000F369FFFF00100140EE
:100A9000001401406421B0FBF1F106FB0106704730
:100AA0002DE9F843040016D02078DFF80463C1076D
:100AB00013D5B06800F00C00042807D0B06800F02F
:100AC0000C0008283DD1706841023AD53068810396
:100AD00003D56068002800F065812078B54F810754
:100AE00019D5B06810F00C0F07D0B06800F00C00FA
:100AF00008285BD17068410258D43068810703D55B
:100B0000E068012840F04E813168206921F0F80149
:100B100041EAC00131602178080779D56069A649AA
:100B2000002868D001220A6000F012FB0546706FB1
:100B300081076DD400F00CFB401B0228F7D903207D
:100B400033E16068B0F5803F04D1306840F4803014
:100B5000306011E0B0F5A02F306806D140F480205D
:100B60003060316841F4803105E020F4803030603D
:100B7000316821F480213160606858B100F0E8FAF2
:100B8000054630688103A8D400F0E2FA401B6528CE
:100B9000F7D3D4E700F0DCFA0546306881039CD532
:100BA00000F0D6FA401B6528F7D3C8E7E068A8B183
:100BB0000121396000F0CCFA05463068810705D480
:100BC00000F0C6FA401B0228F7D9B8E7306821695F
:100BD00020F0F80040EAC10030609CE7386000F087
:100BE000B7FA05463168880795D500F0B1FA401B81
:100BF0000228F7D9A3E7086000F0AAFA0546706F4B
:100C0000810705D500F0A4FA401B0228F7D996E722
:100C10002078410760D5306C0025C1000BD400203E
:100C200000900125316C41F080513164306C00F04E
:100C3000805000900098DFF88481D8F80000C1054A
:100C400013D4D8F8000040F48070C8F8000000F019
:100C50007FFA8146D8F80000C10506D400F078FA82
:100C6000A0EB09000228F5D969E7A068012805D0A2
:100C70000528306F06D140F004003067306F40F037
:100C8000010005E0400840003067306F20F00400AC
:100C9000306741F28938A06860B100F059FA8146A6
:100CA000306F810713D400F053FAA0EB09004045E0
:100CB000F6D344E700F04CFA8146306F810706D541
:100CC00000F046FAA0EB09004045F6D337E71DB126
:100CD000306C20F080503064A069002864D0B16886
:100CE00001F00C0108293AD002282AD100203866E8
:100CF00000F02EFA05463068810105D500F028FA8B
:100D0000401B0228F7D91AE7E069216A626A0843A2
:100D1000A16A490840EA8210491E40EA0140E16A9E
:100D200040EA016070600120386600F011FA044664
:100D30003068810138D400F00BFA001B0228F7D983
:100D4000FDE60020386600F003FA044630688101B1
:100D50002AD500F0FDF9001B0228F7D9EFE601289B
:100D600020D07068E26900F48001914202BF00F077
:100D70003F01226A914201BF47F6C0710140626A99
:100D8000B1EB821F0ED1A26A00F4403101F580312F
:100D90005208B1EB024F02BF00F07060E16AB0EBA5
:100DA000016F01D0012000E00020BDE8F28300BF08
:100DB0000038024000004742800E47420070004069
:100DC0002DE9F04104000F4654D0494E306800F040
:100DD0000700B84202D200F073F84BD12068454DAD
:100DE000810712D5400703D5A96841F4E051A960F5
:100DF0002078010703D5A86840F46040A860A9687E
:100E0000A06821F0F0010143A9602178C80729D525
:100E10006068012802D129688A0305E0022818BF0A
:100E2000032803D129688A0103D423E029688A07AB
:100E300020D5A968890840EA8100A86000F088F9F7
:100E40008046A868616800F00C00B0EB810F09D003
:100E500000F07EF9A0EB080041F289318842F0D31E
:100E600003202BE0306800F00700874204D200F036
:100E700027F801D0012021E02078410705D5AA6894
:100E8000E06822F4E0520243AA602178080706D500
:100E9000A968206921F4604141EAC001A96000F01D
:100EA000E1F9AA681449154BC2F30312895CC840E2
:100EB00018601348006800F07DF80020BDE8F0815C
:100EC0003770316801F00701B94270470B480D4A8D
:100ED000006813680C49C3F3822206E00748094AF8
:100EE000006813680849C3F34232895CC840704700
:100EF000003C024000380240B01300080C00002003
:100F000008000020083802405814000809010200B7
:100F100002D4224881547047214B02F00F021A4438
:100F200002F8041C70471F4B19684FF6FF020002BD
:100F3000114000F4E06008431B4908431860704703
:100F400070B5184B1C68C4F302230124C3F10705D4
:100F5000052D2EBF0F2504FA05F56D1E1E1D072E4B
:100F600034BF0023DB1E2940994004FA03F3BDE897
:100F700070405B1E1A401143C8E7401EB0F1807FED
:100F800001D3012070470949094A48600023F02035
:100F900010708B60072008600020704700E400E0BC
:100FA00018ED00E00CED00E00000FA0510E000E0B4
:100FB00023ED00E038B50D4D0D4B2A7804464FF473
:100FC0007A711868B1FBF2F2B0FBF2F0FFF7D5FFCF
:100FD00050B9102C08D2002221464FF0FF30FFF705
:100FE000AFFFAC60002032BD012032BD0000002008
:100FF0000C00002082B0002000900022414841688F
:1010000041F480414160416801F4804100910099C0
:101010000092036843F080530360006800F0805042
:1010200000900098072002B0FFF77DBF10B586B092
:10103000044614220021684600F044F92268334B2C
:10104000334831499A4231D1002205924B6943F02D
:1010500010034B6100234A6902F010020592059AC1
:1010600005930C6844F001040C600A6802F0010268
:101070000592059A05934FF400420C6844F002046F
:101080000C600223096801F0020100F02EF8FFF75E
:1010900073FA022101910022802002920321009024
:1010A00003910722049269461A481AE01A4B9A42A1
:1010B00019D1002205920B6943F400330B61002320
:1010C0000A6902F400320592059A05930C220C6815
:1010D00044F001040C600223096801F0010100F0F2
:1010E00004F8FFF749FA06B010BD05910599009282
:1010F000019300220292032307220393049269467C
:101100007047000040380240303802400010014073
:1011100000000240000402400044004000B500BF4F
:10112000130096469446103928BFA0E80C50FAD810
:101130005FEA417C28BF0CC048BF40F8042BC907B8
:1011400028BF20F8022B48BF00F8012B00BD00008B
:1011500001484068704700BF00000020D3BBD9B1F0
:10116000B2F5803F5BD2022A1ED98C46B1FBF2F168
:1011700002FB11C31B0443EA1043B3FBF2FC02FB66
:101180001C3380B240EA0343B3FBF2F002FB10329F
:1011900040EA0C4000237047022A05D98446B0FB80
:1011A000F2F002FB10C270474AB105D100F0010213
:1011B00049085FEA3000704700220023704700F0C2
:1011C0008BB80B000200002100207047F7D30022EB
:1011D00000237047904271EB030CF2D370B5B1FA63
:1011E00081F4B3FA83F52C1BA340C4F1200532FA35
:1011F00005F63343A2405FF00046E64002E05B089C
:101200005FEA3202841A71EB030524BF20462946A7
:101210007641F4D302000B003000002170BD70B5A0
:10122000B1FA81F4B2FA82F5C4F120046419B4F180
:101230002006DAD3B2405FF00044F440002502E01B
:1012400052085FEA3303C61A71EB020E24BF304620
:10125000714664416D41F3D302000B002000290068
:1012600070BD000030B5144C606800F00C0004281C
:1012700002D0082802D01DE0104830BD2268206846
:101280000023410202F03F0204D525680B49C5F353
:10129000881003E020680A49C0F38810A1FB000110
:1012A000FFF75CFF2168C1F30141491C4900B0FB15
:1012B000F1F030BD024830BD0438024000127A001F
:1012C0000024F40010B5044610460A4601462046A4
:1012D00000F004F8204610BD7047000062F30F22B2
:1012E00062F31F42401810F0030308D0C91A1FD33D
:1012F000DB0748BF00F8012D28BF20F8022D13009E
:1013000030B414461546103928BF20E93C00FAD8FD
:10131000490728BF20E90C0048BF40F8042D890088
:1013200028BF20F8022D48BF00F8012D30BC7047BF
:10133000C91818BF00F8012DCB0728BF00F8012DF0
:101340007047000010B5074979441831064C7C44B9
:10135000163404E00A68081D114488470146A1427A
:10136000F8D110BD2C000000380000004EF6885166
:10137000CEF20001086840F470000860BFF34F8FA0
:10138000BFF36F8F4FF00170E1EE100A704700005D
:10139000AFF1FFFFB00100001A00000000000020C4
:1013A0000248016841F470010160704788ED00E077
:1013B0000000000000000000010203040607080905
:1013C00000F00DF8002801D0FFF7BCFFAFF300805C
:1013D0000020AFF30080FEF7DFFE00F002F80120EE
:1013E000704700F001B800000746384600F002F8E8
:1013F000FBE7000080B5AFF30080024A110018201F
:10140000ABBEFBE7260002000548014603B4684670
:1014100080F30988AFF30080FFF7A8FFFFF7D0FF44
:10142000A5EDF5FEFEE7FEE7FEE7FEE7FEE7704707
:101430007047704700F000B80248416802788A1887
:101440004260704700000020014880470148004783
:10145000A1130008091400080000000001020304A1
:10146000FFF7FEBFFFF7FEBFFFF7FEBFFFF7FEBFB0
:10147000FFF7FEBFFFF7FEBFFFF7FEBFFFF7FEBFA0
:10148000FFF7FEBFFFF7FEBFFFF7FEBFFFF7FEBF90
:10149000FFF7FEBFFFF7FEBFFFF7FEBFFFF7FEBF80
:1014A000FFF7FEBFFFF7FEBFFFF7FEBFFFF7FEBF70
:1014B000FFF7FEBFFFF7FEBFFFF7FEBFFFF7FEBF60
:1014C000FFF7FEBFFFF7FEBFFFF7FEBFFFF7FEBF50
:1014D000FFF7FEBFFFF7FEBFFFF7FEBFFFF7FEBF40
:1014E000FFF7FEBFFFF7FEBFFFF7FEBFFFF7FEBF30
:1014F000FFF7FEBFFFF7FEBFFFF7FEBFFFF7FEBF20
:10150000FFF7FEBFFFF7FEBFFFF7FEBFFFF7FEBF0F
:10151000FFF7FEBFFFF7FEBFFFF7FEBFFFF7FEBFFF
:10152000FFF7FEBFFFF7FEBFFFF7FEBFFFF7FEBFEF
:10153000FFF7FEBFFFF7FEBFFFF7FEBFFFF7FEBFDF
:10154000FFF7FEBF0001F9000010FC000124F4BB0E
:01155000009A
:0400000508001409D2
:00000001FF
